:020000040800F2
:1000000090060020650100088B0100088D010008A2
:1000100000000000000000000000000000000000E0
:100020000000000000000000000000008F01000838
:10003000000000000000000091010008930100088A
:100040009501000895010008950100089501000838
:100050009501000895010008950100089501000828
:100060009501000895010008950100089501000818
:100070009501000895010008950100089501000808
:100080009501000800000000000000000D0B0008B2
:100090000000000095010008950100089501000886
:1000A0000000000095010008950100089501000876
:1000B00095010008000000003106000895010008C5
:1000C00000F002F800F03EF80CA030C80838241800
:1000D0002D18A246671EAB4654465D46AC4201D180
:1000E00000F030F87E460F3E0FCCB6460126334274
:1000F00000D0FB1AA246AB4633431847900A0000D3
:10010000B00A0000103A02D378C878C1FAD8520772
:1001100001D330C830C101D504680C6070470000BD
:100120000023002400250026103A01D378C1FBD813
:10013000520700D330C100D50B6070471FB51FBDFB
:1001400010B510BD00F04BF81146FFF7F7FF00F0B7
:100150000DFD00F063F803B4FFF7F2FF03BC00F0FD
:1001600069F800000F4880F308880F480168090EFD
:100170000E4A914205D10E480E4901600E480F49C2
:1001800001600F4880470F480047FEE7FEE7FEE7A3
:10019000FEE7FEE7FEE700000B480C490C4A0D4B5A
:1001A0007047000090060020040000001F000000BF
:1001B0001810024001000000000001400000000093
:1001C000AD0A0008C1000008900000209006002041
:1001D00090020020900200207047704770477546DB
:1001E00000F024F8AE46050069465346C008C0003A
:1001F000854618B020B5FFF7CFFF60BC002749083F
:10020000B6460026C0C5C0C5C0C5C0C5C0C5C0C5AE
:10021000C0C5C0C5403D49008D46704710B5044675
:10022000C046C0462046FFF796FF10BD0048704705
:100230002C00002001491820ABBEFEE7260002007A
:1002400070470000F0B5012676028A1B08241025AD
:100250000423B14239D011DC202930D007DC012938
:1002600028D0042929D0082900D1C560F0BD402933
:1002700027D0FF390139F9D14360F0BD3F21490250
:10028000571A00268A4224D00ADCFF3AFF3A023A83
:100290001DD0012189028A42EFD186614360F0BD01
:1002A0000121C903791A0ED0012212049142F6D11C
:1002B0004560F0BD08498160F0BDC460F0BD0461D7
:1002C000F0BD0561F0BD4460F0BD4360F0BD43602A
:1002D000F0BD86614360F0BD0101010010B5012150
:1002E0004C06204600F088FB0021204600F084FBED
:1002F00010BD000010B5827A0123194691402A4AA8
:1003000014681C431460D3698B43D361037B002BB7
:1003100012D1D3688B43D360C38844881B04234322
:10032000847AE400A4182364838804881B0423438C
:10033000847AE400A4186364037B012B12D1D36890
:100340000B43D360038844881B042343847AE4006E
:10035000A41823648388C4881B042343847AE4009C
:10036000A4186364C37A002B06D053680B43536010
:100370000389002B04D006E053688B435360F7E7F2
:1003800053698B4353610389012B02D153690B439A
:100390005361407B012802D1D0690843D0611068C5
:1003A00040084000106010BD0066004010B50246D5
:1003B000002053690B4212D0FF2401340B1BA142D1
:1003C0005AD018DC082943D00ADC012936D002298A
:1003D00039D0042903D1D068082100F083F910BD79
:1003E00010293AD020293DD04029F8D11069102198
:1003F00000F078F910BD7F2109025C1A8B424AD0C7
:100400000FDCFF3B013B3CD0FF3BFF3B023B3DD0C1
:10041000012189028B42EDD19069702100F062F9CF
:1004200010BD0121C903611A21D001231B04994287
:10043000F6D15068102100F055F910BD90681849A8
:1004400000F050F910BDD068032100F04BF910BD49
:10045000D068102100F046F910BD1069032100F0AA
:1004600041F910BD1069082100F03CF910BD506839
:10047000082100F037F910BD9069012100F032F930
:1004800010BD9069022100F02DF910BD9069042182
:1004900000F028F910BD5068042100F023F910BDC8
:1004A00001010100002A03D042690A4342617047FA
:1004B00042698A434261704710B5002203680224F2
:1004C000A34303600368012423430360384B00E027
:1004D000521C4468E40701D19A42F9D14268D2071C
:1004E0003ED08C798022012C3CD004689443046077
:1004F000CC794022012C39D00468944304600C7AF2
:100500002022012C36D00468944304604C7A1022D7
:10051000012C33D00468944304608C7A0822012CA7
:1005200030D0046894430460CC7A0422012C2DD08E
:100530000468944304608A78CC78920724062243A6
:100540000C79240422434C79098824052243491E4E
:100550000A43C261016849084900016000211AE0AC
:10056000002010BD046814430460C1E7046814430C
:100570000460C4E7046814430460C7E704681443D4
:100580000460CAE7046814430460CDE704681443B8
:100590000460D0E7491C4268D20701D09942F9D1E2
:1005A0004068C00701D0002010BD012010BD000030
:1005B000FFFFFF0030B50B011B18FF3381331C6BAD
:1005C00004252C401472002C2AD01C6BE4085460C3
:1005D0001C6B02252C4054725C6B2407240F947210
:1005E0005C6B240AD4749C6BD4729C6B240A1473C5
:1005F0009C6B240C54739C6B240E9473DC6BD4732F
:10060000DC6B240A1474DC6B240C5474DB6B1B0E3F
:1006100093742022002907D001691143016130BD84
:100620001C6B640D1460D3E7C1681143C16030BD19
:1006300030B585B0264C02212046FFF7B7FE0028D2
:1006400003D002212046FFF7FDFD6A460021204627
:10065000FFF7B0FF6846C07C002833D16846C07AF7
:1006600009241C4AE406F82301215A2804D91181DF
:10067000A0691843A06125E0174D462804D91181CF
:100680002B817820A0611DE0322804D911812B81B3
:100690003820A06116E01E2804D911812B81182072
:1006A000A0610FE00A2804D911812B810820A061E4
:1006B00008E011812B8109480078002802D0054804
:1006C0002038816106490020087005B030BD000067
:1006D000006400402004004820000048030000207F
:1006E00000000020024600200A4200D0012070478E
:1006F000F0B500220325012393400C681C409C4266
:100700002AD10C79012C01D0022C12D18768540017
:100710002E46A640B74387604E79A640846826439C
:10072000866084889C43848084888B7993401C43B2
:100730008480066853002C469C40A64306600E79D0
:1007400007689E403E430660C668A643C660CC79F3
:100750009C40C3681C43C460521C102ACBD3F0BD1C
:1007600010B54B07DB0E9A40C90889000818016ACA
:100770000F249C40A1430162016A1143016210BD34
:1007800081617047044901600021017101224271B9
:100790008171C17170470000FFFF000002490148EC
:1007A00008607047CCCC000000300040024901488E
:1007B00008607047AAAA0000003000400149486064
:1007C0007047000000300040014988607047000019
:1007D00000300040014908607047000000300040D0
:1007E000F8B5214C2046FFF779FD204900258D7191
:1007F000CD710D724D728D72CD728D70CD700720DE
:10080000087106224A710A802046FFF755FE012230
:1008100002212046FFF746FE154CA572E57201261F
:1008200026730320000220806580FF277F01A780B8
:10083000E580258166732046FFF75CFDA672E572B0
:100840002673700220806580A780E580258166730D
:100850002046FFF74FFD07481E2101704670867045
:1008600000F086F8F8BD0000006400401000002091
:100870001C0000200C000020F8B51648FFF782FF8E
:10088000144C01252571FC20206000266671E6715C
:100890000927FF0621463846FFF72AFF2560214633
:1008A0000D48FFF725FF022020710320C0022060C1
:1008B0006671E57121463846FFF71AFF04220B21C5
:1008C0003846FFF74DFF04220C213846FFF748FF5A
:1008D000F8BD0000040000200004004810B5FFF738
:1008E0005DFF0848FFF776FF0320FFF767FF7D20D5
:1008F0000001FFF769FF0448C1680029FCD1FFF738
:1009000055FF10BD555500000030004010B50121C5
:10091000480400F055F80121880400F051F8012145
:10092000080200F05BF80121480600F057F810BDFE
:1009300010B50C490A4808810A480B492038C162A1
:10094000828901210A43828102880A430280074882
:10095000132202704170817000F00AF810BD00008F
:100960005F09000020200040381800000C00002023
:1009700030B5827801240178002A16D08B080E4AFF
:100980009B009A1813688907C90EFF258D40AB4359
:100990004578AD072D0E8D401D4315600078C006CB
:1009A000C00E84400548046030BDC806C00E8440B7
:1009B00002488030046030BD00E400E000E100E067
:1009C000054A002903D051690143516170475169BB
:1009D000814351617047000000100240054A002920
:1009E00003D0D1690143D1617047D1698143D1619D
:1009F0007047000000100240054A002903D0116929
:100A00000143116170471169814311617047000012
:100A1000001002403CB50023019300932148016877
:100A20000124240421430160610005252D0302688F
:100A30000A400092019A521C0192009A002A02D1A7
:100A4000019AAA42F3D10168890302D501210091DC
:100A500000E000930099012923D1134A112111606C
:100A6000416841604168416041687F22D2039143FF
:100A7000416041682143416001680122120611432F
:100A8000016001688901FCD54168890889004160DD
:100A9000416802221143416041680907890F022918
:100AA000FAD13CBD001002400020024010B51448AD
:100AB00001680122114301604168124A11404160FE
:100AC0000168114A114001600168012292049143BA
:100AD000016041683F22120491434160C16A0909E3
:100AE0000901C162016BFF22543291430163416BE2
:100AF00049084900416300218160FFF78BFF10BD69
:100B0000001002400CB8FFF8FFFFF6FE10B51148C8
:100B1000018A4908490001820F48002101700F4BEA
:100B200001211A78012A0DD101700D4A1078484030
:100B30001070F822002803D00920C006826101E06D
:100B4000084802811970084802784A400270FFF78D
:100B50002DFE10BD002000400100002000000020FC
:100B6000020000202000004803000020FFF7B6FE2E
:100B7000FFF7CCFEFFF780FEFFF732FEFFF7D8FE4F
:100B800009200421C006FFF7FBFDFEE7AC0B0008BF
:100B9000000000201000000004010008BC0B000849
:100BA0001000002080060000200100080000000066
:0C0BB00000000000000000000000000039
:040000050800016589
:00000001FF
